S0190000537572656C6F636B2D6661696C736166652E737265635B
S11300000AC024C023C022C021C020C01FC01EC0FB
S11300101DC01CC01BC011271FBFCFE5D0E0DEBF31
S1130020CDBF20E0A0E4B0E0EAEAF1E402C03191FF
S11300303D93A234B207D9F720E0A2E4B0E001C0B6
S11300401D93A335B207E1F76FD0ADC0D9CF48ED0A
S11300504CBF41E046BF08950A980895099A119843
S113006008951BBB4DB3487F4DBB4DB343604DBB9F
S1130070EF9A0895EE9AEE99FECF89B30895CF933F
S1130080DF93CDB7DEB7E62FF72FCA5FDF4F688166
S1130090C650D040A82FB92FA40FB11F4191508151
S11300A0E150F040460F511F7C91471B510BEF5F0D
S11300B0FF4F508342936C93CB5FDF4F688170E0B6
S11300C0819190815AD0862F972FDF91CF910895F7
S11300D0D1DF8F9340A14F9346A163E470E087E49E
S11300E090E0CDDF85A946A14F5F46A90F910F91FE
S11300F050A1451708F016A9089545A1453520F0EB
S113010041E042A981E00895423518F412A980E043
S113011008954255433030F481E042A1411303C0B5
S113012080E0089580E0089592DF96DF97DF99DFFD
S113013030E0C0E0D0E0311317C0DFDF882371F076
S11301404C2F5D2F4F5F5F4FC83ED34058F0119A3C
S113015012980A9AC42FD52F31E006C01198C0E036
S1130160D0E002C0C42FD52FB3DF47EE53E0415097
S11301705040E9F700C00000DECFAA1BBB1B51E1D1
S113018007C0AA1FBB1FA617B70710F0A61BB70B03
S1130190881F991F5A95A9F780959095682F792FF4
S10D01A08A2F9B2F0895F894FFCFD7
S10501AA0C0043
S9030000FC
